:100000000C945E000C9486000C9486000C94860080
:100010000C9486000C9486000C9486000C94860048
:100020000C9486000C9486000C9486000C94860038
:100030000C9486000C9486000C9486000C94860028
:100040000C94AB020C9486000C941B030C94F502E8
:100050000C9486000C9486000C9486000C94860008
:100060000C9486000C948600000000080002010039
:100070000003040700000000000000000000000072
:10008000250028002B0000000000240027002A0083
:10009000040404040404040402020202020203032E
:1000A0000303030301020408102040800102040836
:1000B00010200102040810204D033D0511241FBE2D
:1000C000CFEFD8E0DEBFCDBF21E0A2E4B1E001C0B8
:1000D0001D92A43FB207E1F711E0A0E0B1E0E6E134
:1000E000FFE002C005900D92A234B107D9F710E0ED
:1000F000CDE5D0E004C02197FE010E947D05CC35FE
:10010000D107C9F70E94C1030C947E070C9400002C
:1001100090E0FC01EC55FF4F249180579F4FFC016C
:100120008491882399F090E0880F991FFC01EA5789
:10013000FF4FA591B491FC01E458FF4F8591949134
:100140008FB7F894EC91E22BEC938FBF089590E079
:10015000FC01E859FF4F2491FC01EC55FF4F34910D
:10016000FC01E057FF4FE491EE23C9F0222339F060
:10017000233001F1A8F4213019F1223029F1F0E007
:10018000EE0FFF1FE458FF4FA591B4918FB7F8947D
:10019000EC91611126C030953E233C938FBF0895AA
:1001A0002730A9F02830C9F0243049F78091800029
:1001B0008F7D03C0809180008F7780938000DFCF98
:1001C00084B58F7784BDDBCF84B58F7DFBCF8091E5
:1001D000B0008F778093B000D2CF8091B0008F7D38
:1001E000F9CF3E2BDACF1F93CF93DF93182FEB017C
:1001F0000E948800209739F460E0812FDF91CF9131
:100200001F910C94A700CF3FD10511F461E0F5CF09
:10021000E12FF0E0E859FF4FE491E33031F140F491
:10022000E130B1F0E230E1F0C038D1057CF7E4CF45
:10023000E73029F1E83059F1E430B1F780918000DE
:10024000806280938000D0938B00C0938A0004C0AA
:1002500084B5806884BDC7BDDF91CF911F9108959B
:1002600084B5806284BDC8BDF7CF8091800080686E
:1002700080938000D0938900C0938800EDCF809157
:10028000B00080688093B000C093B300E5CF809148
:10029000B00080628093B000C093B400DDCFAF9215
:1002A000BF92CF92DF92EF92FF920F931F93CF9363
:1002B000DF936C017B018B01040F151FEB015E01C5
:1002C000AE18BF08C017D10759F06991D601ED915A
:1002D000FC910190F081E02DC6010995892B79F7F9
:1002E000C501DF91CF911F910F91FF90EF90DF90AB
:1002F000CF90BF90AF900895FC01538D448D252F72
:1003000030E0842F90E0821B930B541710F0CF96AF
:10031000089501970895FC01918D828D981761F0E1
:10032000A28DAE0FBF2FB11D5D968C91928D9F5FF8
:100330009F73928F90E008958FEF9FEF0895FC01D7
:10034000918D828D981731F0828DE80FF11D858D8A
:1003500090E008958FEF9FEF0895FC01918D228D1D
:10036000892F90E0805C9F4F821B91098F739927A2
:1003700008958DE491E00E94AD0121E0892B09F4FC
:1003800020E0822F089580E090E0892B29F00E94E0
:10039000B90181110C9400000895FC01A48DA80FEF
:1003A000B92FB11DA35ABF4F2C91848D90E00196B7
:1003B0008F739927848FA689B7892C93A089B189D7
:1003C0008C91837080648C93938D848D981306C078
:1003D0000288F389E02D80818F7D80830895EF92DC
:1003E000FF920F931F93CF93DF93EC0181E0888FEF
:1003F0009B8D8C8D98131AC0E889F989808185FFBF
:1004000015C09FB7F894EE89FF896083E889F98960
:1004100080818370806480839FBF81E090E0DF9162
:10042000CF911F910F91FF90EF900895F62E0B8DB5
:1004300010E00F5F1F4F0F731127E02E8C8D8E1170
:100440000CC00FB607FCFACFE889F989808185FFD7
:10045000F5CFCE010E94CD01F1CFEB8DEC0FFD2F3A
:10046000F11DE35AFF4FF0829FB7F8940B8FEA8992
:10047000FB8980818062CFCFCF93DF93EC01888DA1
:100480008823B9F0AA89BB89E889F9898C9185FD0F
:1004900003C0808186FD0DC00FB607FCF7CF8C919D
:1004A00085FFF2CF808185FFEDCFCE010E94CD0187
:1004B000E9CFDF91CF91089542E050E068E171E02B
:1004C0008DE491E00C944F01CF93DF93EC01809188
:1004D000EA019091EB01009759F02091EC013091E5
:1004E000ED012C173D0720F081E0DF91CF910895B9
:1004F000BE016F5F7F4F0E94A806009789F090931E
:10050000EB018093EA01D093ED01C093EC012091BF
:10051000EE013091EF01232B39F7FC011082E4CF7B
:1005200080E0E3CF2091EE013091EF01232B39F4ED
:1005300021E0FC018081882361F020E00AC0BC0139
:100540008091EA019091EB010E946E0721E0892BD6
:10055000A1F7822F08951F920F920FB60F921124C8
:100560002F933F938F939F93AF93BF9380914901B4
:1005700090914A01A0914B01B0914C0130914801FA
:1005800023E0230F2D3758F50196A11DB11D2093AF
:1005900048018093490190934A01A0934B01B09385
:1005A0004C018091440190914501A0914601B09188
:1005B00047010196A11DB11D80934401909345010F
:1005C000A0934601B0934701BF91AF919F918F9146
:1005D0003F912F910F900FBE0F901F90189526E816
:1005E000230F0296A11DB11DD2CF1F920F920FB6FD
:1005F0000F9211242F933F934F935F936F937F93A9
:100600008F939F93AF93BF93EF93FF938DE491E00C
:100610000E94CD01FF91EF91BF91AF919F918F917A
:100620007F916F915F914F913F912F910F900FBEEE
:100630000F901F9018951F920F920FB60F921124D2
:100640002F938F939F93EF93FF93E0915D01F09130
:100650005E018081E0916301F091640182FD1BC025
:100660009081809166018F5F8F732091670182175F
:1006700041F0E0916601F0E0E35BFE4F958F8093DF
:100680006601FF91EF919F918F912F910F900FBE77
:100690000F901F9018958081F4CF10925001109206
:1006A0004F0188EE93E0A0E0B0E080935101909379
:1006B0005201A0935301B09354018AE091E09093CA
:1006C0004E0180934D0185EC90E090935A01809308
:1006D000590184EC90E090935C0180935B0180EC85
:1006E00090E090935E0180935D0181EC90E09093A7
:1006F000600180935F0182EC90E0909362018093AF
:10070000610186EC90E09093640180936301109204
:1007100066011092670110926801109269011092AF
:10072000EB011092EA011092ED011092EC0110928F
:10073000EF011092EE0190E080E00E9464022091AF
:10074000EA013091EB01811113C02115310519F037
:10075000C9010E941F061092EB011092EA0110924B
:10076000EF011092EE011092ED011092EC0108954C
:100770001092EF011092EE016AE171E0C9010C9450
:100780007707CF93DF9300D0CDB7DEB7789484B5E9
:10079000826084BD84B5816084BD85B5826085BD7D
:1007A00085B5816085BD80916E00816080936E000B
:1007B00010928100809181008260809381008091FD
:1007C00081008160809381008091800081608093AE
:1007D00080008091B10084608093B1008091B0006E
:1007E00081608093B00080917A00846080937A0069
:1007F00080917A00826080937A0080917A00816093
:1008000080937A0080917A00806880937A001092B9
:10081000C10083E00E94880084E00E94880085E097
:100820000E94880086E00E94880089E00E9488007B
:100830008AE00E948800E0915D01F0915E0182E013
:100840008083E0915901F0915A011082E0915B019F
:10085000F0915C018FEC808310926501E091610161
:10086000F091620186E08083E0915F01F091600188
:10087000808180618083E0915F01F09160018081DF
:1008800088608083E0915F01F091600180818068E1
:100890008083E0915F01F091600180818F7D808392
:1008A0004DE050E06BE171E08DE491E00E944F017A
:1008B0000E945C0290E4D92E20E0E22E20E0F22E8D
:1008C000D0927C0080917A00806480937A0080913D
:1008D0007A0086FDFCCF009178001091790017FF17
:1008E00002C00D5F1F4F159507951595079510933D
:1008F000430100934201B80189E00E94F300B8016E
:100900008AE00E94F3008DE491E00E94AD01892B02
:1009100061F18DE491E00E948B01182F8D3289F1F5
:10092000682F8DE491E00E94EF0119831A820091F3
:10093000EE011091EF010F5F1F4FC8010E9464028A
:10094000882399F02091EA013091EB018091EE012A
:100950009091EF01BE016F5F7F4F820F931F0E9446
:1009600077071093EF010093EE01E114F10409F40D
:10097000A7CF0E94B901882309F4A2CF0E940000EA
:100980009FCF0E945C0289E291E00E94920288233C
:1009900069F160E083E00E94A70061E084E00E94CA
:1009A000A70060E085E00E94A70061E086E00E9469
:1009B000A70090E080E00E9464022091EA0130915B
:1009C000EB01811150C02115310519F0C9010E94B8
:1009D0001F061092EB011092EA011092EF011092A3
:1009E000EE011092ED011092EC01BFCF8FE291E089
:1009F0000E949202882351F061E083E00E94A700E8
:100A000060E084E00E94A70061E00FC084E391E011
:100A10000E949202882371F061E083E00E94A700A7
:100A200060E084E00E94A70060E085E00E94A700EB
:100A300060E0BCCF88E391E00E949202882331F00D
:100A400060E083E00E94A70060E0A8CF8CE391E023
:100A50000E949202882309F4ACCF60E083E00E94F8
:100A6000A70061E0CECF1092EF011092EE016AE193
:100A700071E0C9010E94770778CF8091EA019091D7
:100A8000EB01009711F00C941F0608952F923F92EE
:100A90004F925F926F927F928F929F92AF92BF928E
:100AA000CF92DF92EF92FF920F931F93CF93DF933A
:100AB000CDB7DEB7CA1BDB0B0FB6F894DEBF0FBE97
:100AC000CDBF09942A88398848885F846E847D84E4
:100AD0008C849B84AA84B984C884DF80EE80FD80E6
:100AE0000C811B81AA81B981CE0FD11D0FB6F8945C
:100AF000DEBF0FBECDBFED010895EE0FFF1F0590C5
:100B0000F491E02D09940F931F93CF93DF938230DC
:100B1000910510F482E090E0E091F201F091F30190
:100B200030E020E0B0E0A0E0309799F421153105E5
:100B300009F44AC0281B390B24303105D8F58A81C5
:100B40009B816115710589F1FB0193838283FE010D
:100B500011C0408151810281138148175907E0F08B
:100B60004817590799F4109761F012960C93129751
:100B700013961C933296CF01DF91CF911F910F9165
:100B800008950093F2011093F301F4CF211531057C
:100B900051F04217530738F0A901DB019A01BD015A
:100BA000DF01F801C1CFEF01F9CF9093F3018093FA
:100BB000F201CDCFFE01E20FF31F819391932250FA
:100BC000310939832883D7CF2091F0013091F10189
:100BD000232B41F420910201309103013093F10164
:100BE0002093F00120910001309101012115310580
:100BF00041F42DB73EB74091040150910501241BEB
:100C0000350BE091F001F091F101E217F307A0F448
:100C10002E1B3F0B2817390778F0AC014E5F5F4F52
:100C20002417350748F04E0F5F1F5093F101409392
:100C3000F001819391939FCFF0E0E0E09CCFCF93C0
:100C4000DF930097E9F0FC01329713821282A091A2
:100C5000F201B091F301ED0130E020E01097A1F432
:100C600020813181820F931F2091F0013091F10199
:100C70002817390709F061C0F093F101E093F00102
:100C8000DF91CF910895EA01CE17DF07E8F54A8199
:100C90005B819E0141155105B1F7E901FB83EA83B0
:100CA00049915991C40FD51FEC17FD0761F480815C
:100CB00091810296840F951FE9019983888382812F
:100CC00093819B838A83F0E0E0E012968D919C9162
:100CD00013970097B9F52D913C911197CD0102968C
:100CE000820F931F2091F0013091F10128173907ED
:100CF00039F6309751F51092F3011092F201B0934A
:100D0000F101A093F001BCCFD383C2834081518114
:100D1000840F951FC817D90761F44E5F5F4F888114
:100D20009981480F591F518340838A819B81938306
:100D300082832115310509F0B0CFF093F301E093E0
:100D4000F2019ECFFD01DC01C0CF13821282D7CF0A
:100D5000B0E0A0E0EEEAF6E00C9448058C010097C4
:100D600051F4CB010E9483058C01C801CDB7DEB7D9
:100D7000E0E10C946405FC01E60FF71F9C01225092
:100D80003109E217F30708F49DC0D901CD91DC9138
:100D90001197C617D70798F0C530D10530F3CE01AB
:100DA00004978617970708F3C61BD70B2297C193A2
:100DB000D1936D937C93CF010E941F06D6CF5B0128
:100DC000AC1ABD0A4C018C0E9D1EA091F201B0918F
:100DD000F301512C412CF12CE12C109731F580912D
:100DE000F0019091F1018815990509F05CC0461653
:100DF000570608F058C080910001909101010097BA
:100E000041F48DB79EB74091040150910501841BB8
:100E1000950BE817F90708F055C0F093F101E0933E
:100E2000F001F90171836083A0CF8D919C9111979E
:100E300012966C90129713967C901397A815B9058B
:100E400059F56C0142E0C40ED11CCA14DB0420F138
:100E5000AC014A195B09DA011296159780F062829B
:100E6000738251834083D9016D937C93E114F10423
:100E700071F0D7011396FC93EE93129776CF2296DA
:100E80008C0F9D1FF90191838083F301EFCFF093C5
:100E9000F301E093F20169CF4816590608F42C01DA
:100EA0007D01D3019ACFCB010E9483057C0100977D
:100EB00049F0AE01B8010E946507C8010E941F06F3
:100EC000870153CF10E000E050CFFB01DC0102C0EE
:100ED00001900D9241505040D8F70895FB01DC017C
:100EE0008D91019080190110D9F3990B0895FB01A0
:100EF000DC0101900D920020E1F7089510E0CDE5AE
:100F0000D0E004C0FE010E947D052196CE35D107B8
:060F1000C9F7F894FFCFC1
:100F16000000F401800000000000EF014F017C0199
:100F26003C02AD018B019F010D0A004B6F6D75747C
:100F360020676972696E697A00696C657269006713
:100F46006572690073616700736F6C007370696E18
:020F5600000099
:00000001FF
